:020000040000FA
:100000000C9463000C948B000C948B000C948F1454
:100010000C948F140C948F140C94B31F0C948B00BD
:100020000C948B000C948B000C948B000C94B412E9
:100030000C948B000C948B000C948B000C948B0014
:100040000C946A120C948B000C9438120C941212BB
:100050000C948B000C948B000C948B000C948B00F4
:100060000C9470130C948B000000000024002700F7
:100070002A0000000008000201000003040700003D
:1000800000000000000000000000230026002900FE
:1000900000000000250028002B00040404040404D0
:1000A0000404020202020202030303030303010227
:1000B00004081020408001020408102001020408F6
:1000C0001020B61F372111241FBECFEFD8E0DEBFAE
:1000D000CDBF12E0A0E0B1E0ECE4F9E402C005908D
:1000E0000D92A833B107D9F725E0A8E3B2E001C02B
:1000F0001D92A630B207E1F710E0C2E6D0E004C0DE
:100100002197FE010E948923C136D107C9F70E94B9
:10011000DB200C9499240C9400008CBD9DBD0895A7
:100120000895AF92BF92CF92DF92EF92FF920F931A
:100130001F93CF93DF936C017B018B01040F151F7D
:10014000EB015E01AE18BF08C017D10759F06991E5
:10015000D601ED91FC910190F081E02DC601099549
:10016000892B79F7C501DF91CF911F910F91FF90F6
:10017000EF90DF90CF90BF90AF900895FC01538D2A
:10018000448D252F30E0842F90E0821B930B541771
:1001900010F0CF96089501970895FC01918D828DFE
:1001A000981761F0A28DAE0FBF2FB11D5D968C9197
:1001B000928D9F5F9F73928F90E008958FEF9FEFD6
:1001C0000895FC01918D828D981731F0828DE80F92
:1001D000F11D858D90E008958FEF9FEF0895FC014C
:1001E000918D228D892F90E0805C9F4F821B910919
:1001F0008F739927089581EE93E00E94EF0021E02C
:10020000892B09F420E0822F08950E94FB008111C0
:100210000C940000089580E090E0892B11F00C947C
:1002200005010895FC01A48DA80FB92FB11DA35A93
:10023000BF4F2C91848D90E001968F739927848F06
:10024000A689B7892C93A089B1898C918370806429
:100250008C93938D848D981306C00288F389E02DCA
:1002600080818F7D80830895EF92FF920F931F937B
:10027000CF93DF93EC0181E0888F9B8D8C8D981359
:100280001AC0E889F989808185FF15C09FB7F89465
:10029000EE89FF896083E889F989808183708064B1
:1002A00080839FBF81E090E0DF91CF911F910F91FC
:1002B000FF90EF900895F62E0B8D10E00F5F1F4F0B
:1002C0000F731127E02E8C8D8E110CC00FB607FC1A
:1002D000FACFE889F989808185FFF5CFCE010E94A8
:1002E0001201F1CFEB8DEC0FFD2FF11DE35AFF4F03
:1002F000F0829FB7F8940B8FEA89FB898081806236
:10030000CFCFCF93DF93EC01888D8823B9F0AA89F2
:10031000BB89E889F9898C9185FD03C0808186FDC0
:100320000DC00FB607FCF7CF8C9185FFF2CF80810F
:1003300085FFEDCFCE010E941201E9CFDF91CF9171
:100340000895833081F028F4813099F08230A9F04B
:1003500008958730A9F08830C9F08430B1F48091D5
:1003600080008F7D03C0809180008F778093800014
:10037000089584B58F7784BD089584B58F7DFBCFB4
:100380008091B0008F778093B00008958091B00085
:100390008F7DF9CFCF93DF93282F30E0F901EE580E
:1003A000FF4F8491F901E255FF4FD491F901E656D0
:1003B000FF4FC491CC23A1F081110E94A101EC2F29
:1003C000F0E0EE0FFF1FEA57FF4FA591B491EC91BB
:1003D000ED2381E090E009F480E0DF91CF91089572
:1003E00080E090E0FACF1F93CF93DF93282F30E087
:1003F000F901EE58FF4F8491F901E255FF4FD49176
:10040000F901E656FF4FC491CC23A9F0162F8111B4
:100410000E94A101EC2FF0E0EE0FFF1FE057FF4F0D
:10042000A591B4918FB7F894EC91111108C0D095B3
:10043000DE23DC938FBFDF91CF911F910895DE2BD8
:10044000F8CFCF93DF9390E0FC01E255FF4F24916A
:1004500086569F4FFC0184918823D1F090E0880F4D
:10046000991FFC01E859FF4FA591B491FC01E05799
:10047000FF4FC591D49161110EC09FB7F8948C9134
:10048000E22FE0958E238C932881E223E8839FBF9F
:10049000DF91CF9108958FB7F894EC91E22BEC9314
:1004A0008FBFF6CF3FB7F894809184039091850376
:1004B000A0918603B091870326B5A89B05C02F3F66
:1004C00019F00196A11DB11D3FBFBA2FA92F982F7A
:1004D0008827BC01CD01620F711D811D911D42E075
:1004E000660F771F881F991F4A95D1F708958F923D
:1004F0009F92AF92BF92CF92DF92EF92FF924B0109
:100500005C010E9452026B017C010E9452026C1934
:100510007D098E099F09683E734081059105A8F306
:1005200021E0821A9108A108B10888EEC80E83E084
:10053000D81EE11CF11C81149104A104B10429F717
:10054000FF90EF90DF90CF90BF90AF909F908F90F3
:1005500008952FB7F8946091800370918103809182
:100560008203909183032FBF0895CF92DF92EF9281
:10057000FF92CF93DF93EC01603282E07807CCF5F5
:10058000653B710514F064EB70E0898128E830E088
:10059000281B310987FD3395220F331F220F331F8C
:1005A0006901330FEE08FF088A8128E532E0281B35
:1005B000310987FD3395220F331F220F331F032E7E
:1005C000000C440B550B2C193D094E095F09DB014A
:1005D00077FF02C0B0E0A0E00E94F92224EB30E0F7
:1005E00040E050E00E94CF22C20ED31EE41EF51E52
:1005F000B601E881EC3070F5298188E890E0821B33
:10060000910927FD9395880F991F880F991F6817E7
:1006100079077CF02A8188E592E0821B910927FD09
:100620009395880F991F880F991F681779070CF405
:10063000CB010297880F991F4FB7F8942E2F30E007
:10064000F901EE0FFF1FE20FF31FE657FB4F9283F6
:1006500081834FBFDF91CF91FF90EF90DF90CF90DC
:1006600008951F93CF93DF93EC01162F88818C3070
:1006700008F04EC061E0812F0E9421028881282F5E
:1006800030E0F901EE0FFF1FE20FF31FE657FB4FBB
:100690001F736081607C612B608319821A822CE059
:1006A000622F0E946923829FB001112430E020E074
:1006B000AB01420F531FFA01EE0FFF1FE40FF51FAE
:1006C000E657FB4F908196FD16C02F5F3F4F2C30B1
:1006D000310571F781110FC01092800082E0809384
:1006E00081001092850010928400B19A80916F0071
:1006F000826080936F00E8818E2F90E0FC01EE0F06
:10070000FF1FE80FF91FE657FB4F8081806480834D
:100710008881DF91CF911F91089520910903260FC1
:100720003327331F21323105ECF420915403FC01AF
:1007300090E080E0243069F082E00895A091090300
:100740002191AC0149515D4FA40FB52FB11D2C93E0
:100750000196861798F380910903680F6093090347
:1007600080E0089581E008951092540381E0809321
:10077000530310922E0361E082E10E94F30161E0D5
:1007800083E10E94F301E9EBF0E080818E7F8083BA
:1007900080818D7F808388E48093B80085E4809396
:1007A000BC000895CF93DF9391E09093E6028823F5
:1007B000B9F0C091B800D091BA008091BC008A7B9A
:1007C0008093BC0060E082E10E94F30160E083E17D
:1007D0000E94F3010E94B403D093BA00C093B80002
:1007E000DF91CF910895089508950895E091E5026D
:1007F0008091E402E81730F4F0E0EC53FD4F808183
:1008000090E008958FEF9FEF08959091E502809119
:10081000E4022FEF3FEF981748F4E92FF0E0EC5394
:10082000FD4F208130E09F5F9093E502C90108955C
:100830008091E4029091E502891B990B0895CF9273
:10084000DF92EF92FF920F931F93CF93DF937C0180
:10085000CB018A0120915A03222389F0EB016B011D
:10086000C40ED51ECC15DD0569F06991D701ED9157
:10087000FC910190F081E02DC7010995F3CF642F21
:100880000E948D03C801DF91CF911F910F91FF90BE
:10089000EF90DF90CF900895CF93DF931F92CDB765
:1008A000DEB7698320915A032223F9F020917D035A
:1008B000203258F021E030E0FC013383228390E0C5
:1008C00080E00F90DF91CF91089580915B03E82F36
:1008D000F0E0E45AFC4F998190838F5F80935B0333
:1008E00080937D0381E090E0ECCF61E0CE01019642
:1008F0000E948D03F7CFCF92DF92EF92FF920F937A
:100900001F93CF93DF93FC01C48121E020935A030E
:10091000C0937C0310925B0310927D038385682B48
:100920008EE794E00E944C04D0917D03D13208F010
:1009300092C00E9452026B017C018091540381118C
:1009400065C082E08093540381E0809353038FEF6E
:100950008093520310925103D0935003ACE5B3E05F
:10096000E0E3F3E080E0D81385C010922F0380917C
:100970002F03CC0FC82BC0932F0380912E038130FF
:1009800009F07CC010922E030E9452026B017C0180
:1009900080912F038093BB00809156039091570361
:1009A000A0915803B0915903892B8A2B8B2B99F076
:1009B0000E94520200915603109157032091580350
:1009C000309159036C197D098E099F090617170785
:1009D00028073907E0F18091BC0083FDD9CF85EC71
:1009E0008093BC000E9452026B017C0180915403F1
:1009F000823009F445C0809152038F3F61F18091AC
:100A00005203803241F18091520325C080915603F8
:100A100090915703A0915803B0915903892B8A2BC9
:100A20008B2B09F48ACF0E94520200915603109139
:100A3000570320915803309159036C197D098E0991
:100A40009F09061717072807390708F076CF809106
:100A500055030E94D20310925B0310927D03109203
:100A60005A03DF91CF911F910F91FF90EF90DF908C
:100A7000CF9008959D9191938F5F75CF85EEB0CF04
:100A80008091560390915703A0915803B091590358
:100A9000892B8A2B8B2B09F4A9CF0E94520200913B
:100AA00056031091570320915803309159036C1944
:100AB0007D098E099F09061717072807390708F0CF
:100AC00095CFC5CFBC016E5F7F4FDC01ED91FC91EE
:100AD0000190F081E02D40E0099591E0811190E0D6
:100AE000892F089508958EBD00000DB407FEFDCF37
:100AF0008EB50895DF92EF92FF920F931F93CF93DD
:100B0000DF937C01062FD42E152F80E590E00E9404
:100B10008D0060E0F70186850E94F30182E10E946A
:100B20007305CD2DD12F0C0F1D2F111DC017D1070F
:100B300021F089910E947305F9CF61E0F701868564
:100B4000DF91CF911F910F91FF90EF90DF900C9468
:100B5000F3011F93CF93DF93EC01162F80E590E014
:100B60000E948D0060E08E850E94F301812F8068D5
:100B70000E94730580E00E947305182F61E08E8546
:100B80000E94F301812FDF91CF911F9108950F9360
:100B90001F93CF93DF93EC01062F142F80E590E095
:100BA0000E948D0060E08E850E94F301802F0E94DC
:100BB0007305812F0E94730561E08E85DF91CF91CF
:100BC0001F910F910C94F301CF92DF92EF92FF925D
:100BD0000F931F93CF93DF93EC016B01F42E8901E8
:100BE00040E062E00E94C70544E06AE0CE010E9456
:100BF000C70540E864E1CE010E94C705A6016F2D3C
:100C0000CE010E947A0543E062E0CE010E94C70552
:100C10000E94A9026B017C0129E5C20ED11CE11CD6
:100C2000F11C6AE0CE010E94A90582FF1BC040E0D2
:100C300062E0CE010E94C70564E4CE010E94A905CE
:100C4000F801808362E4CE010E94A905F801818346
:100C500080E0DF91CF911F910F91FF90EF90DF9097
:100C6000CF9008950E94A9026C157D058E059F0501
:100C7000C0F283E0EECF2F923F924F925F926F923D
:100C80007F928F929F92AF92CF92DF92EF92FF92DC
:100C90000F931F93CF93DF9300D0CDB7DEB74C01F6
:100CA0002B01D42E390180E0E114F10411F0F70199
:100CB00080813C2C329490EF3922380E40E062E083
:100CC000C4010E94C7054FE768E0C4010E94C70540
:100CD00040E864E1C4010E94C705A2016D2DC40172
:100CE0000E947A05432D6AE1C4010E94C7054CE0C9
:100CF00062E0C4010E94C7056AE1C4010E94A9051F
:100D0000482F40686AE1C4010E94C7050E94A902F9
:100D10001B012C01F4E22F0E311C411C511C68E018
:100D2000C4010E94A905982F907309F0B7C080FFF5
:100D300015C083E00F900F90DF91CF911F910F911D
:100D4000FF90EF90DF90CF90AF909F908F907F902B
:100D50006F905F904F903F902F9008950E94A9024E
:100D60006215730584059505D0F2E3CF6114710413
:100D700009F469C00115110509F465C064E1C401F5
:100D80000E94A905382EF8018081831508F480C0DF
:100D900030823320E1F180E590E00E948D0060E038
:100DA000F40186850E94F3013A9482E90E9473055A
:100DB000CC20B1F08FEF90E09C0102C0220F331FD6
:100DC000CA94E2F7690182E90E9473059C2D90950F
:100DD000F301208192238C21982B9083CC24C394FF
:100DE00023014C0C511CC31440F482E90E9473058A
:100DF000F20181932F01C394F6CF80E00E94730526
:100E0000F201808361E0F40186850E94F30168E1CC
:100E1000C4010E94A9058770E114F10411F0F701E3
:100E2000808323FC37C061147104B1F101151105F1
:100E300099F1AA2089F1F8014081413031F48430E0
:100E400029F58FEF77CF80E0ECCF4230F8F08111B9
:100E50001DC042509E012F5F3F4FB301C4010E944D
:100E6000E405811167CFF8019081690E711CF301CF
:100E7000329720819981291309C0F1E06F1A710816
:100E8000F30120819A81291709F454CF87E052CFCA
:100E900084E050CF82E04ECF80E04CCF6CE0C401C4
:100EA0000E94A905282E837109F460CF81E042CF0A
:100EB0008F929F92AF92CF92EF92FF920F931F93D8
:100EC000CF93DF9300D000D01F92CDB7DEB74C0197
:100ED00082E08D8340E064E2C4010E94C70540E0E7
:100EE00066E2C4010E94C70546E268E4C4010E94AC
:100EF000C70586E28B838D818230D8F16CE1C40115
:100F00000E94A905482F4F776CE1C4010E94C705D4
:100F100087E08C83A12CC12CCE0104967C018E012C
:100F20000B5F1F4F9E012F5F3F4F41E0BE016D5F82
:100F30007F4FC4010E943B06982F811117C08D81FD
:100F40008230B9F48C81811114C081E00F900F9030
:100F50000F900F900F90DF91CF911F910F91FF9005
:100F6000EF90CF90AF909F908F90089581E0923056
:100F700069F380E0EBCF2F923F924F925F926F9296
:100F80007F928F929F92AF92BF92CF92DF92EF9219
:100F9000FF920F931F93CF93DF93CDB7DEB72D97BB
:100FA0000FB6F894DEBF0FBECDBF16E0413508F096
:100FB0004AC1342E3B014C016CE10E94A905482F27
:100FC0004F776CE1C4010E94C70583E98983332010
:100FD00029F081E0F3019081953008F480E022242B
:100FE0002394B12C9B2D990F990F990FD32CD91ABB
:100FF000D7FCD12C32E0882319F098E89B8333E0AA
:1010000021E09D2D977009F420E09D2D95959595F3
:101010009595290FC9F094E0811193E0291708F400
:10102000922FEB2DF0E03196E60DF71D232F419125
:10103000A1E0B0E0AC0FBD1FA20FB11D4C932F5F1C
:10104000422F431B491798F3882311F0F8E0DF0E75
:101050008FE18D150CF082C090E79A838B819C8183
:1010600089279D8189279E8189278F839E01285FFB
:101070003F4F47E0BE016F5F7F4FC4010E94E40510
:10108000182F8111E0C01A86E3E0EB87DC86CE01E1
:1010900007962C0199E09D87CA844C2D4295407F8C
:1010A0004C0D6AE1C4010E94C705A12CCE010A962D
:1010B0007C018E01055F1F4F92014D85BE016F5F60
:1010C0007F4FC4010E943B06182F823009F065C093
:1010D0006CE1C4010E94A90585FDB5C08F7109F4BA
:1010E00080E2282F30E04D2DDD0C550B42175307C1
:1010F0000CF09DC0D82EE82FE595E595E595EF5FBE
:10110000982F977081E009F480E0E80F81E090E08B
:101110008C0F9D1F8E0F911DFC01215031092770EE
:10112000332781E090E002C0880F991F2A95E2F7EB
:101130009C018081822B80838BCF85E9898333203A
:1011400031F081E0F3019081983008F04BCF80E0DE
:1011500049CF87E9898326E0B22EF9CF9D2D97707C
:101160009A878D2D8595859585958E5F282F22955B
:10117000207F290F2A8321E0911101C020E0280F50
:101180002D8744244394512C4C0E5D1E480E511C57
:10119000E9E0E81BEB87DC867FCF811154C080E259
:1011A000D82E9C8590320CF457CF8B81883809F06B
:1011B00040C083E093E0EB2DF0E03196E60DF71DA3
:1011C000980FA1E0B0E0AC0FBD1FA80FB11D2C918E
:1011D00021938F5F8913F5CFBB84E3E0BE124DC02E
:1011E0008A8581114AC09E012D5F3F4F41E0B201C7
:1011F000C4010E94E405182F811125C09B81F201D2
:10120000818198133CC09C818281981338C0808171
:1012100082FF12C02394F2E02F1609F48ECF83E0F0
:10122000281609F496CF91E0291609F4CECE15E0E0
:101230000AC082E094E0BFCFF3018387822D880F3C
:10124000820D8F5F8083812F2D960FB6F894DEBFBD
:101250000FBECDBFDF91CF911F910F91FF90EF9007
:10126000DF90CF90BF90AF909F908F907F906F90C6
:101270005F904F903F902F90089511E0E4CF17E0DA
:10128000E2CF2091C2023091C3022817390771F4CE
:101290009091C1028091C002981741F0E091C10283
:1012A000F0E0E058FD4F808190E008958FEF9FEFD0
:1012B0000895EF92FF920F931F93CF93DF93DC017A
:1012C0005C96ED90FC905D97E114F10479F481E077
:1012D00090E013969C938E93129790E080E0DF91BC
:1012E000CF911F910F91FF90EF9008955196ED913E
:1012F000FC91529750968C915097982F90950FB7DC
:101300005E962C915E97122F127021FD6095F894D5
:101310002081112319F1282B2083E7012197F1F770
:1013200028E0462F50E0308160FF1AC0382B308310
:10133000E7012197F1F7BA0175956795215089F773
:10134000112381F08081892380830FBF5C968D916A
:101350009C910197F1F781E090E0C1CF2923DCCF88
:101360003923E5CF9081892BEFCF2091C2023091B4
:10137000C3022817390771F48091C0022091C1027D
:1013800090E0805C9F4F821B910960E470E00E94B6
:101390007523089590E080E008952091C202309175
:1013A000C30228173907B9F49091C1028091C00295
:1013B000981789F0E091C102F0E0E058FD4F80817C
:1013C0002091C10230E02F5F3F4F2F7333272093CE
:1013D000C10290E008958FEF9FEF089590E080E0C4
:1013E00008950F931F93CF938C01C62F0E947B0407
:1013F0006C2F6460C8010E947B046C2F6B7FC80156
:101400000E947B0483EC90E00197F1F7CF911F914C
:101410000F9108950F931F93CF93DF938C01D62FD5
:10142000C42F607F642B0E94F10980E1D89FB00136
:1014300011246C2BC801DF91CF911F910F910C9457
:10144000F109CF93DF93CDB7DEB728970FB6F894A5
:10145000DEBF0FBECDBF98E0E7E0F1E0DE01119600
:1014600001900D929A95E1F79091B704981708F4BE
:101470008FEF90E0880F991F21E030E02C0F3D1F87
:10148000820F931FFC016081606840E08FEA94E066
:1014900028960FB6F894DEBF0FBECDBFDF91CF9177
:1014A0000C940A0A40E061E08FEA94E00E940A0A84
:1014B0008BE39FE10197F1F7089541E00E940A0A4A
:1014C00081E090E00895FB0101900020E9F7319759
:1014D000AF01461B570BDC01ED91FC910280F381BB
:1014E000E02D09940C94630A0E94A902009149021C
:1014F00010914A0220914B0230914C02601B710BFB
:10150000820B930B683C71058105910540F061E009
:1015100086E00E94210260E086E00E94F3016BE514
:1015200071E081EE93E00E94720A68EE73E080E061
:1015300090E00E947702D8CFCF93DF93DC0114961E
:101540002D913C911597232B79F0FB01CD91DC91E6
:1015500060817181CE010E947F24009729F08C1B4D
:101560009D0BDF91CF9108958FEF9FEFFACF0F93EF
:101570001F93CF93DF93EC0188819981009759F0F5
:101580002A813B812617370730F081E0DF91CF9128
:101590001F910F9108958B016F5F7F4F0E94A323CE
:1015A000009759F0998388831B830A832C813D819E
:1015B000232B59F7FC011082E8CF80E0E7CFEF92B0
:1015C000FF920F931F93CF93DF936115710541F441
:1015D00080E0DF91CF911F910F91FF90EF900895E0
:1015E00041155105B1F07B01EC010C811D81040F07
:1015F000151FB8010E94B70A882351F32881398149
:101600008C819D81B701820F931F0E9478241D83D6
:101610000C8381E0DECFCF93DF93EC018881998149
:10162000009711F00E94FB21198218821D821C82F2
:101630001B821A82DF91CF910895EF92FF920F9350
:101640001F93CF93DF93EC017B018A01BA010E94C3
:10165000B70A81110BC0CE010E940B0BCE01DF91A6
:10166000CF911F910F91FF90EF9008951D830C83F0
:10167000B701888199810E947824F0CFFB01019005
:101680000020E9F73197AF01461B570B0C941D0B57
:10169000CF93DF93EC01FB018617970749F0608138
:1016A00071816115710541F0448155810E941D0BC6
:1016B000CE01DF91CF9108950E940B0BF9CFFC0171
:1016C00011821082138212821582148261157105B3
:1016D00051F0FB0101900020E9F73197AF01461B63
:1016E000570B0C941D0B0895FC018081918100978C
:1016F00011F00C94FB210895CF93DF93CDB7DEB7A3
:1017000062970FB6F894DEBF0FBECDBF01E088E749
:10171000C82E80E0D82E96EEE92EF12C16EEAA24E3
:10172000AA94BA2C83EE94E00E94B509892BB1F0FB
:1017300083EE94E00E94CD09982E89831A8241E0BD
:1017400050E0BE016F5F7F4F8DED94E00E94DF0A95
:101750008AE09812E7CF00935502E4CF80915502BA
:10176000882309F42CC11E861D86188A1F861A8AB2
:10177000198A6DED74E0CE010D960E94480B6DE55F
:1017800071E081EE93E00E94720A49895A896D8561
:101790007E8581EE93E00E94910062E771E081EE28
:1017A00093E00E94630A18861F821A8619861C8697
:1017B0001B86BE01635F7F4FCE0107960E94480BD8
:1017C0000E94520A87E00E94CA014C019093540281
:1017D0008093530288E00E94CA01892809F060C002
:1017E00081E090E090934E0280934D0265E771E0B6
:1017F000CE0101960E945F0BBE016F5F7F4FCE014D
:1018000007960E949C0A4C01CE0101960E94740B1F
:1018100097FC55C087E00E94CA014C019093540286
:101820008093530288E00E94CA01892809F040C0D1
:101830006AE570E084ED94E00E94B5020E94A9027E
:1018400060934F0270935002809351029093520222
:1018500080E00E94210A67E771E08FEA94E00E942D
:10186000720A81E00E94210A62E871E08FEA94E046
:101870000E94720A61E086E00E942102F6018491D2
:10188000833009F4AEC008F069C0813009F479C032
:10189000823009F4A1C061E086E00E94F30175C0C6
:1018A000892B09F0A3CFB0924E02A0924D029ECF99
:1018B000892B21F66AE570E081ED94E0BDCF6AE8FE
:1018C00071E0CE0101960E945F0BBE016F5F7F4FFA
:1018D000CE0107960E949C0A4C01CE0101960E94FF
:1018E000740B97FCC7CF87E00E94CA014C0190930C
:1018F00054028093530288E00E94CA01892839F576
:1019000068E070E084ED94E00E94B5020E94A902B4
:1019100060934F0270935002809351029093520251
:1019200080E00E94210A6CE871E08FEA94E00E9456
:10193000720A81E00E94210A6DE971E08FEA94E069
:101940000E94720A10924E0210924D0293CF892B80
:10195000E9F668E070E081ED94E0D6CF873009F4D5
:101960004AC0883009F44FC0843009F094CF809188
:101970008000806280938000F0928B00E0928A0069
:1019800004C084B5806884BD17BD0E94A90260931D
:10199000490270934A0280934B0290934C02CE010D
:1019A00007960E94740BCE010D960E94740B64E79B
:1019B00071E08DED94E00E943E0B1092550267EAB3
:1019C00071E081EE93E00E94720A68EE73E080E0BD
:1019D00090E00E947702A6CE84B5806284BD18BDD7
:1019E000D4CF80918000806880938000F09289003D
:1019F000E0928800CACF8091B00080688093B000E8
:101A00001093B300C2CF8091B00080628093B00089
:101A10001093B400BACF85ED8093BC00809156033B
:101A200090915703A0915803B09159030796A11DB7
:101A3000B11D23E0B695A795979587952A95D1F77F
:101A40002091BC0024FD03C01092540308954091DE
:101A50005603509157036091580370915903452BD9
:101A6000462B472B69F30097A105B10541F025E30B
:101A70002A95F1F700000197A109B109E1CF809102
:101A800055030C94D203CF93DF93CDB7DEB768979D
:101A90000FB6F894DEBF0FBECDBF0E94520A8091F0
:101AA000560290915702181619060CF050C080E0AB
:101AB0000E94210A66EB71E08FEA94E00E94720AAC
:101AC00081E00E94210A80915602909157021C8A5F
:101AD0001B8A1E8A1D8A188E1F8A4AE0BE016F5F0C
:101AE0007F4F0E948422BE016F5F7F4FCE014396DD
:101AF0000E943E0B64EC71E0CE0101960E945F0BE8
:101B00004F89588D6B897C89CE0101960E94DF0A2E
:101B1000811104C0CE0101960E940B0B4D815E81A4
:101B200069817A818FEA94E00E949100CE0101964A
:101B30000E94740BCE0143960E94740B68960FB6F8
:101B4000F894DEBF0FBECDBFDF91CF91089580E046
:101B50000E94210A63ED71E08FEA94E00E94720A0C
:101B600081E00E94210A6CED71E08FEA94E00E940E
:101B7000720AE4CFCF93DF93CDB7DEB765970FB688
:101B8000F894DEBF0FBECDBF0E94A90200914502AE
:101B9000109146022091470230914802601B710B60
:101BA000820B930B683E73408105910508F431C1A7
:101BB00088E00E94CA012091560230915702121605
:101BC00013061CF0892B09F024C181EC94E00E94DB
:101BD0005807882309F413C181EC94E00E94620540
:101BE000882309F40CC164E771E0CE0140960E949D
:101BF0005F0B10E08091C304181708F041C0812FDB
:101C000090E0FC01EF53FB4F7F0183816DEE71E0AB
:101C1000803110F060E771E0CE0101960E945F0B09
:101C20004D815E8169817A81CE0140960E94DF0AF2
:101C3000CE0101960E94740BF70183811B861A86E0
:101C40001D861C861F861E8640E1BE016F5F7F4F8A
:101C500090E00E948F22BE016F5F7F4FCE010A96F7
:101C60000E943E0B4E855F856A857B85CE0140963E
:101C70000E94DF0ACE010A960E94740B1F5FBACF42
:101C8000088919890115110571F0F80181918F01F9
:101C9000882349F0082E000C990B0E946024F8015B
:101CA00031978083F2CFEC88FD88CC24C394D12C6B
:101CB000E114F10421F06701EE24E394F12C64E7D0
:101CC00071E0CE0101960E945F0B0C891D89E01620
:101CD000F106E0F4C016D10608F48601E889F98916
:101CE000E00FF11FD0801082688979896E0D7F1D09
:101CF000CE0101966115710509F498C00E943E0B52
:101D000088899989080F191FF801D08288899989D3
:101D1000009709F490C069817A816115710509F411
:101D200088C04A895B892D813E814217530708F498
:101D300080C00E9478248D819E819D8B8C8B1E8219
:101D40001D82CE0101960E94740B1B861A861D8689
:101D50001C861F861E86BE01605F7F4FCE010A96DD
:101D60000E94480B64E771E087ED94E00E943E0B0F
:101D700065E771E0CE0101960E945F0B4E855F859D
:101D80006A857B85CE0101960E94DF0A811104C01D
:101D9000CE0101960E940B0B41E050E060EF71E034
:101DA000CE0101960E94DF0A811104C0CE01019686
:101DB0000E940B0BBE016F5F7F4F87ED94E00E9486
:101DC000480BCE0101960E94740B4091DB045091A8
:101DD000DC046091D7047091D80483EE94E00E94F3
:101DE000910062E771E083EE94E00E94630ACE0105
:101DF0000A960E94740BCE0140960E94740B0E94BA
:101E0000A902609345027093460280934702909323
:101E1000480262EF71E081EE93E00E94720A68EE80
:101E200073E080E090E00E947702AECE0E940B0B40
:101E300067CF0E94FB2189819A81998B888B8B8146
:101E40009C819B8B8A8B8D819E819D8B8C8B1A8232
:101E500019821C821B8273CF0E94A90200914F023B
:101E6000109150022091510230915202601B710B6F
:101E7000820B930B683873418105910529F56091B8
:101E800056027091570280914D0290914E02681B4C
:101E9000790B709357026093560290E080E00E94A5
:101EA000C12280914D0290914E0281309105C9F47A
:101EB00068E070E084ED94E00E94B50210924E025A
:101EC00010924D020E94430D64EF71E081EE93E0A9
:101ED0000E94720A68EE73E080E090E00E94770250
:101EE000BBCF019659F768E070E081ED94E0E4CF54
:101EF0000F931F93CF93DF9390E080E00E94B9226D
:101F000090E090935702809356021092E50210924F
:101F1000E40210925B0310927D030E94B40383EFEE
:101F200093E0909308038093070384EF93E09093EA
:101F30000C0380930B031092B4048091B904823097
:101F400018F098E09093B4048093B70462E370E0D3
:101F500080E090E00E9477026091BA048FEA94E0FA
:101F60000E947B0468EE73E080E090E00E947702BC
:101F700060E38FEA94E00E94F109CBE4D6E4CE015D
:101F80000197F1F760E38FEA94E00E94F10921974D
:101F9000F1F760E38FEA94E00E94F10983E592E0B3
:101FA0000197F1F760E28FEA94E00E94F1096091F5
:101FB000B404606240E08FEA94E00E940A0A84E080
:101FC0008093B50440E06CE08FEA94E00E940A0A36
:101FD0000E94520AC2E0C093B60440E066E08FEA75
:101FE00094E00E940A0A40E062E08FEA94E00E94D6
:101FF0000A0A8BE39FE10197F1F788E08093BA0426
:1020000060E08FEA94E00E947B040E94430DE0911F
:10201000F103F091F203C083E091ED03F091EE0340
:102020001082E091EF03F091F00380E18083109241
:10203000F903E091F503F091F60386E08083E091E7
:10204000F303F091F403808180618083E091F303D6
:10205000F091F403808188608083E091F303F09134
:10206000F403808180688083E091F303F091F403AE
:1020700080818F7D80831092FE041092FD04109267
:10208000FC041092FB041092FA041092F9048FE100
:1020900090E0909300058093FF049091EF049631B7
:1020A00008F047C021E030E03093FA042093F904AF
:1020B0002DE130E03093FC042093FB042DE030E070
:1020C0003093FE042093FD042091680084E0983052
:1020D00048F031E09E3008F430E081E001C0880F24
:1020E0003A95EAF7822B809368002DE630E098302D
:1020F00050F02BE630E09E3030F02CE630E09631A8
:1021000010F030E020E03093F7042093F604292FFC
:1021100030E0983008F062C181E001C0880F9A95E4
:10212000EAF78093F8048091FF04909100050197ED
:10213000F1F78091FD049091FE04892B49F1E09123
:10214000C202F091C30284E0E33EF80709F1309740
:1021500039F0A389B4899C918589809589238C93D2
:10216000809101058E7F809301051092C00210922C
:10217000C10283EE94E09093C3028093C202E09187
:10218000F604F091F70480819091F804892B808304
:102190000E94A9020E94A902609345027093460220
:1021A00080934702909348020E94A90260934F02D5
:1021B000709350028093510290935202CFB7F894DB
:1021C00080913C02811127C0E4EAF0E08491E8EBC1
:1021D000F0E09491E82FF0E0EE0FFF1FE859FF4F79
:1021E000A591B491EC91E92321F461E08AE00E9489
:1021F000F30161E08AE00E9421028CB580618CBD10
:102200008CB580648CBD61E08DE00E94210261E0AC
:102210008BE00E94210280913C028F5F80933C0200
:10222000CFBF61E08091CF040E94210261E08091E4
:10223000CF040E94F3018091D0048F3F09F4DBC0EA
:1022400060E00E9421028091D0040E94CA01892B83
:1022500009F0D1C061E08091D0040E94210260E0C9
:102260008091D0040E94F30183E090E00197F1F7A0
:1022700061E08091D0040E94F30162E370E080E0AD
:1022800090E00E94770240E064E281EC94E00E94DA
:10229000C70540E066E281EC94E00E94C70546E293
:1022A00068E481EC94E00E94C70540E864E581ECB5
:1022B00094E00E94C70549EA66E581EC94E00E943B
:1022C000C70543E068E581EC94E00E94C70548EE4D
:1022D0006AE581EC94E00E94C70540E46AE281EC83
:1022E00094E00E94C7054DE362E281EC94E00E9415
:1022F000C70568E281EC94E00E94A905982F9370CD
:10230000933039F0482F436068E281EC94E00E94FA
:10231000C70560E087E00E94210260E088E00E943B
:10232000210265E070E084ED94E00E94310364E0F6
:1023300070E081ED94E00E94310368E070E084ED8C
:1023400094E00E94B50268E070E081ED94E00E94A4
:10235000B50287E00E94CA0188E00E94CA0103E436
:1023600012E021E044E650E066EF71E08CE29FE08D
:102370000E94BD1D01E412E021E044E650E067E068
:1023800072E08AEB9DE00E94BD1D0FE312E021E0A8
:1023900044E650E069E172E084E79AE00E94BD1DE6
:1023A0000DE312E021E044E650E06BE272E08CE7DE
:1023B0009BE00E94BD1D0E94CE1560E08AE090E087
:1023C0000E9411170E945F18811102C00E94A1177C
:1023D000DF91CF911F910F910C94E71E9E3040F436
:1023E0002850310981E001C0880F2A95EAF799CE7B
:1023F0002E503109F7CF4FE062E081EC94E00E946B
:10240000C705C3E062E370E080E090E00E947702DD
:1024100062E081EC94E00E94A90584FF34CFC150B2
:1024200089F731CF1F920F920FB60F9211242F937D
:102430003F934F935F936F937F938F939F93AF934C
:10244000BF93EF93FF9381EE93E00E941201FF91FF
:10245000EF91BF91AF919F918F917F916F915F911C
:102460004F913F912F910F900FBE0F901F90189595
:102470001F920F920FB60F9211242F938F939F9359
:10248000EF93FF93E091F103F091F2038081E091EB
:10249000F703F091F80382FD1BC090818091FA034D
:1024A0008F5F8F732091FB03821741F0E091FA0355
:1024B000F0E0EF51FC4F958F8093FA03FF91EF917D
:1024C0009F918F912F910F900FBE0F901F90189595
:1024D0008081F4CF1F920F920FB60F9211242F9389
:1024E0003F938F939F93AF93BF938091800390917D
:1024F0008103A0918203B091830330917F0323E095
:10250000230F2D3758F50196A11DB11D20937F0390
:102510008093800390938103A0938203B0938303FD
:102520008091840390918503A0918603B0918703E5
:102530000196A11DB11D8093840390938503A09300
:102540008603B0938703BF91AF919F918F913F9185
:102550002F910F900FBE0F901F90189526E8230F14
:102560000296A11DB11DD2CF1F920F920FB60F92EE
:1025700011242F933F934F935F936F937F938F9388
:102580009F93AF93BF93CF93DF93EF93FF9380918C
:102590007E03C091AE04D0E087FF24C01092850076
:1025A0001092840080917E038F5F80937E038091E0
:1025B0007E03082E000C990B8C179D0724F4809144
:1025C0007E038C30C4F18091840090918500049644
:1025D00080349C4908F47AC08091840090918500F1
:1025E000049676C080917E03082E000C990B8C1700
:1025F0009D07C4F6E0917E038E2FEE0F990BFC0130
:10260000EE0FFF1FE80FF91FE657FB4F808186FF93
:10261000C9CFE0917E038E2FEE0F990BFC01EE0FD8
:10262000FF1FE80FF91FE657FB4F808160E08F73B3
:102630000E94F301B7CF2091840030918500E09192
:102640007E038E2FEE0F990BFC01EE0FFF1FE80F9C
:10265000F91FE657FB4F81819281820F931F909360
:10266000890080938800E0917E038E2FEE0F990BF6
:10267000FC01EE0FFF1FE80FF91FE657FB4F8081AB
:1026800086FF11C0E0917E038E2FEE0F990BFC01A7
:10269000EE0FFF1FE80FF91FE657FB4F808161E047
:1026A0008F730E94F301FF91EF91DF91CF91BF9162
:1026B000AF919F918F917F916F915F914F913F91DA
:1026C0002F910F900FBE0F901F90189580E49CE9FA
:1026D00090938900809388008FEF80937E03E3CFEF
:1026E0001F920F920FB60F9211242F933F934F9387
:1026F0005F936F937F938F939F93AF93BF93EF936A
:10270000FF938091B900887F803609F44AC0F0F5C4
:10271000883209F4A7C018F5803109F49BC0B8F4D9
:10272000882309F4F9C0883009F494C0FF91EF912F
:10273000BF91AF919F918F917F916F915F914F91D9
:102740003F912F910F900FBE0F901F9018958831D9
:1027500009F488C0803251F78093520314C080344A
:1027600009F49DC040F48033B9F38833F9F68093BF
:10277000520385ECB0C0803509F485C0883509F472
:1027800096C0883499F60E940B0DD0CF883909F491
:102790008CC038F5883729F050F4883611F080372E
:1027A00029F683E08093540310922D0357C0883894
:1027B00009F47BC0803919F0803809F0B7CF8091D7
:1027C0002D03803208F071C0E0912D0381E08E0F5F
:1027D00080932D038091BB00F0E0E35FFC4F80838A
:1027E0003DC0803B39F0E0F4803A09F479C0883A82
:1027F00009F09CCF84E08093540310920A03109256
:102800000903E0910703F0910803099580910903FA
:1028100081110FC081E0809309031092E70209C083
:10282000803C09F4A6CF883C09F4A3CF883B09F08B
:102830007DCFE0910A0381E08E0F80930A03F0E0E0
:10284000E951FD4F80818093BB0090910A038091F4
:10285000090329C080912F038093BB0085EC8093EE
:10286000BC0064CF9091510380915003981758F5A4
:10287000E091510381E08E0F80935103F0E0E05D21
:10288000FC4F8081E9CFE091510381E08E0F80936E
:1028900051038091BB00F0E0E05DFC4F808390919C
:1028A0005103809150039817C8F285E8D8CFE09182
:1028B000510381E08E0F809351038091BB00F0E0C3
:1028C000E05DFC4F80838091530381115CCF81E0F8
:1028D00080932E0384EA8093BC001092540326CF89
:1028E00085EC8093BC001092540380912D038032BC
:1028F00030F4E0912D03F0E0E35FFC4F1082609133
:102900002D0370E0E0910B03F0910C038DE093E058
:10291000099510922D030ACF1092520334CF1F92C3
:102920000F920FB60F9211242F933F934F935F9303
:102930006F937F938F939F93AF93BF93EF93FF9387
:10294000E091C202F091C302309749F0A685B785A5
:102950008585968D91FF14C09C918923A1F4FF91E8
:10296000EF91BF91AF919F918F917F916F915F9107
:102970004F913F912F910F900FBE0F901F90189580
:102980009C91892361F7A389B4899C91858980955D
:1029900089238C93868997890197F1F7608D718DD2
:1029A000A685B785558538E020E0CB010197F1F782
:1029B000822F90E095958795282F4C91452309F01B
:1029C0002068315091F7868D81FD20958091C0025D
:1029D00090E001968F7399273091C102381799F0D2
:1029E000A091C002B0E0A058BD4F2C938093C002CC
:1029F000828D938D0197F1F7A389B4898C91958984
:102A0000892B8C93ACCF868D8160868FF1CFE0913E
:102A10008A03F0918B038081811107C08FEF9FEFB4
:102A200090937402809373020895E0918A03F09169
:102A30008B030580F681E02D80819181F1CFCF93CA
:102A4000DF93DC011596ED91FC910680F781E02D76
:102A5000A489B5898685978520893189EC013D83D4
:102A60002C83C089D1899B838A83CF010C961196D0
:102A70002D913C9112972817390721F41296DC9377
:102A8000CE931197158A148A2C9121502C93209162
:102A90007102211157C0A285B38584819581268159
:102AA0003781EC013D832C83C681D7819B838A8348
:102AB000CF01029611962D913C9112972817390754
:102AC00021F41296DC93CE931197138612862C91E3
:102AD00021502C93C6892091DD032C1710F4C0934C
:102AE000DD0329E02C9FE0011124C754DC4F09804D
:102AF000DA81C02DD583C4834C815D8157834683A1
:102B0000AC81BD8113969C938E9312979D838C8389
:102B1000A689A29FD0011124A754BC4FB387A287D6
:102B20008C918F5F8C93A0913802B0913902968975
:102B300056968C91891730F581E080937002DF9171
:102B4000CF910895A0919F03B091A003B787A68766
:102B500014962D913C911597318B208B1496CD9125
:102B6000DC9115979B838A8315969C938E9314977B
:102B70008EE993E0958B848B80919E038F5F809389
:102B80009E03D1CF80E0DBCF0FB6F8940F928091F7
:102B90007702909178020F900FBE08958091710294
:102BA0008F5F8093710208950FB6F8940F92FC0125
:102BB000928D0F900FBE81E0911180E00895EF9209
:102BC000FF920F931F93CF93DF93EC010FB6F8940E
:102BD0000F921E8D7C0181E1E80EF11C01E01116BF
:102BE000D4F08FEF8E8F0F900FBE0FB6F8940F9228
:102BF0001D8D7E0188E0E80EF11C01E01116B4F095
:102C00008FEF8D8F0F900FBEDF91CF911F910F919E
:102C1000FF90EF9008958989882319F3C7010E94D6
:102C20001F158111009370021150D9CF8885882318
:102C300039F3C7010E941F158111009370021150D2
:102C4000DDCFCF93DF93FC01A085B1858281938195
:102C500024813581EC013D832C83C481D5819B8304
:102C60008A8311968D919C9112978E179F0721F45C
:102C70001296DC93CE931197118610868C91815019
:102C80008C938C91DF91CF9108950F931F93CF93E5
:102C9000DF938C01FB0180819181D80113968F3FD6
:102CA0009807F1F4E801AF81B88512968D919C9157
:102CB000139793838283EC01FD83EC83B583A48314
:102CC0001396FC93EE93129711870087F801808189
:102CD0008F5F8083DF91CF911F910F910895D9016C
:102CE00012962D913C911397E901488159818417DF
:102CF0009507A8F7DACFFC017383628391878087F9
:102D00004617570790F0421B530B8485958548174B
:102D10005907C8F4BF016E5F7F4F80917C0290918C
:102D20007D020E94451680E008954217530718F46B
:102D30006217730740F4BF016E5F7F4F80917E0280
:102D400090917F02EECF81E00895EF92FF920F9372
:102D50001F93CF93DF93EC018B017A016C857D8506
:102D6000600F711F9801A701CE010E947B1681118F
:102D700007C0DF91CF911F910F91FF90EF900895C1
:102D80008C859D85080F191FE889F989CE01099561
:102D9000E5CFEF92FF920F931F93CF93DF938C01B8
:102DA0007B01E0917E02F0917F020580F681E02DAB
:102DB000C681D781CE0102960E9421168A8982FFA0
:102DC0000FC0A701B801CE010E94A516E889F989B4
:102DD000CE01DF91CF911F910F91FF90EF90099459
:102DE0008E7F8A8BF3CFE0917E02F0917F0280810B
:102DF00081110DC080917C0290917D0290937F02A1
:102E000080937E02F0937D02E0937C02089505801A
:102E1000F681E02D6FEF7FEF808191810E94C916CE
:102E2000E2CFFF920F931F93CF93DF93EC01F62E27
:102E300000917702109178028091380290913902C6
:102E400002960E942116CF3FDC07E9F5FF20D9F159
:102E5000E0918D03F0918E03A0913802B091390278
:102E60001596FC93EE931497A0913802B091390215
:102E70008481958117969C938E9316978091380242
:102E800090913902A481B581029613969C938E93FA
:102E9000129780913802909139020296958384832B
:102EA000E0913802F09139028CE893E093878287B1
:102EB00080918C038F5F80938C03DF91CF911F9162
:102EC0000F91FF900895C00FD11FE0913802F0914B
:102ED0003902D383C2836091380270913902C017DE
:102EE000D10768F480918803909189036E5F7F4FCA
:102EF000DF91CF911F910F91FF900C944516809117
:102F00008A0390918B036E5F7F4F0E9445168091DC
:102F1000730290917402C817D90778F6D09374029F
:102F2000C0937302CACFFC010396928381832FEF73
:102F30003FEF348323839683858390878783108232
:102F400008950F920FB6F8940F921F9211242F92AA
:102F50003F924F925F926F927F928F929F92AF9229
:102F6000BF92CF92DF92EF92FF920F931F932F9316
:102F70003F934F935F936F937F938F939F93AF9301
:102F8000BF93CF93DF93EF93FF93A0913802B0915B
:102F900039020DB60D920EB60D9280917102882302
:102FA00021F081E0809370025FC010927002A091C6
:102FB0003802B0913902E0913802F09139022D9136
:102FC0003C918789908D82179307A8F080913802F1
:102FD000909139028091380290913902259A2D9A68
:102FE0002FEF87EA91E6215080409040E1F700C042
:102FF00000001D9AF5CF2091DD0389E001C021502A
:10300000422F50E0849FF001859FF00D1124E7547A
:10301000FC4F9081992399F3A181B28112960D9072
:10302000BC91A02DB283A183289FC0011124845498
:103030009C4FA817B90729F412968D919C91928301
:10304000818389E0849FF001859FF00D1124E7546E
:10305000FC4F0180F281E02D8681978190933902A7
:10306000809338022093DD03A0913802B091390299
:10307000CD91CDBFDD91DEBFFF91EF91DF91CF917B
:10308000BF91AF919F918F917F916F915F914F9180
:103090003F912F911F910F91FF90EF90DF90CF9074
:1030A000BF90AF909F908F907F906F905F904F9068
:1030B0003F902F901F900F900FBE0F9008958F920A
:1030C0009F92BF92CF92DF92EF92FF920F931F9346
:1030D000CF93DF930FB6F8940F92809171028150D5
:1030E0008093710280917102882379F080E00F90C3
:1030F0000FBEDF91CF911F910F91FF90EF90DF9066
:10310000CF90BF909F908F9008958091E003882387
:1031100069F3E090A303F090A403F0E0E0E039E06D
:1031200041E080919E0381115EC0EF2B11F00E945F
:103130000715E0906E02F0906F02E114F10409F4BB
:103140007DC189E0D82ECC24C3940FEF1FEF80916E
:103150007102811161C1C0917702D09178024E0154
:103160008FEF881A980A90927802809277028114E1
:103170009104B9F480918A0390918B032091880384
:103180003091890330938B0320938A0390938903B2
:1031900080938803809179028F5F809379020E94E7
:1031A00007158091730290917402B12C88169906CC
:1031B00008F026C1E0913802F0913902E689DE9EDE
:1031C000F0011124E754FC4F8081823010F0BB24C1
:1031D000B39480917002811103C0BB2009F425C112
:1031E000C092700222C1D7011696ED91FC91A4897C
:1031F000B5896685778580899189EB019D838C836C
:1032000080899189EC017B836A83BF01645F7F4F72
:1032100011960D911C9112970617170721F412961B
:103220009C938E931197158A148A8C9181508C935C
:10323000A285B3858481958166817781EC017D8348
:103240006C8366817781EB019B838A83CF01029631
:1032500011960D911C9112970817190721F41296D7
:103260007C936E931197138612862C9121502C9388
:10327000A6892091DD032A1710F4A093DD033A9F5D
:10328000D0011124A754BC4F11960D90BC91A02DD4
:10329000B583A48314966D917C911597778366838B
:1032A00014966D917C911597EB019B838A831596FB
:1032B0009C938E9314979689939FD0011124A754C1
:1032C000BC4FB387A2878C918F5F8C93A0913802FB
:1032D000B091390256968C91981708F422CF4093FA
:1032E00070021FCFE0918A03F0918B030580F68175
:1032F000E02D0680F781E02D828193818816990662
:1033000028F4909374028093730254CFC285D385BE
:103310008481958126813781DC0115963C932E931B
:10332000149726813781D90113969C938E93129717
:10333000CF01029649815A814817590711F43A83FF
:10334000298313861286288121502883A489B58970
:103350001097F9F02685378540895189E9015D8309
:103360004C8340895189EA013B832A8311966D91F0
:103370007C9112979F01245F3F4F6217730721F4DE
:1033800012965C934E931197158A148A2C912150B2
:103390002C93A6892091DD032A1710F4A093DD0356
:1033A000DA9ED0011124A754BC4F11960D90BC9108
:1033B000A02DB583A48314962D913C911597378346
:1033C000268314962D913C911597E9019B838A835E
:1033D00015969C938E93149796899D9DD0011124E8
:1033E000A754BC4FB387A2878C918F5F8C93E091D9
:1033F0003802F09139028689981710F0BB24B394F3
:10340000E0918A03F0918B03808181116BCF10933F
:10341000740200937302CECE80916E0290916F027F
:10342000019690936F0280936E02D1E0ED1AF1083D
:1034300009F08DCE10926F0210926E028091700290
:10344000882309F453CE0E94A11781E050CECF9378
:10345000DF93009751F0EC010E94CE15CE010E943F
:10346000FB21DF91CF910C945F18DF91CF910895EC
:1034700000E010E08091720281110CC08091B903CC
:10348000823010F00E94A1170115110599F30E94D6
:103490000501F0CF0FB6F8940F92E0919A03F091E6
:1034A0009B03C681D781CE0102960E94211680918E
:1034B000E00381508093E0038091720281508093F9
:1034C00072020F900FBE8F89988D0E94271ACE012D
:1034D0000E94271ACFCF0F920FB6F8940F921F9227
:1034E00011242F923F924F925F926F927F928F9210
:1034F0009F92AF92BF92CF92DF92EF92FF920F9383
:103500001F932F933F934F935F936F937F938F936B
:103510009F93AF93BF93CF93DF93EF93FF93A091CC
:103520003802B09139020DB60D920EB60D9213BE4F
:10353000809171028111F9C0809177029091780297
:1035400001969093780280937702009781F52091FD
:103550008A0330918B0340918803509189035093E3
:103560008B0340938A03309389032093880320912F
:1035700079022F5F20937902E0918A03F0918B0307
:103580002081211107C02FEF3FEF30937402209369
:1035900073020DC0E0918A03F0918B030580F681E0
:1035A000E02D2081318130937402209373022091A9
:1035B0007302309174028217930710F420E0A1C0C7
:1035C00020E039E0D32EE0918A03F0918B03308123
:1035D000311107C08FEF9FEF9093740280937302B5
:1035E00090C0E0918A03F0918B030580F681E02D75
:1035F0000680F781E02D428153818417950728F4D6
:1036000050937402409373027CC0A285B3854481B9
:10361000558166817781EA017D836C83668177813C
:10362000EB015B834A83AF014E5F5F4F11960D91B3
:103630001C9112970417150721F412967C936E9330
:103640001197138612863C9131503C93A489B58919
:103650001097F9F06685778500891189EB011D8344
:103660000C8300891189E8017B836A831196ED90B0
:10367000FC901297BF01645F7F4FE616F70621F4B6
:1036800012961C930E931197158A148A3C9131500F
:103690003C93A6893091DD033A1710F4A093DD0323
:1036A000DA9ED0011124A754BC4F11960D90BC9105
:1036B000A02DB583A48314966D917C911597778383
:1036C000668314966D917C911597EB015B834A8319
:1036D00015965C934E93149746894D9DD001112405
:1036E000A754BC4FB387A2873C913F5F3C93E091C6
:1036F0003802F09139023689431708F464CF21E08B
:1037000062CFE0913802F0913902E689D9E0ED9F6D
:10371000F0011124E754FC4F8081823008F021E051
:103720008091700281110EC00AC080916E0290914A
:103730006F02019690936F0280936E026AC02223FB
:1037400009F467C080917102882321F081E08093A1
:1037500070025FC010927002A0913802B0913902DD
:10376000E0913802F09139022D913C918789908D3A
:1037700082179307A8F080913802909139028091C6
:10378000380290913902259A2D9A2FEF87EA91E617
:10379000215080409040E1F700C000001D9AF5CF15
:1037A0002091DD0389E001C02150422F50E0849F29
:1037B000F001859FF00D1124E754FC4F908199236F
:1037C00099F3A181B28112960D90BC91A02DB28384
:1037D000A183289FC001112484549C4FA817B907C6
:1037E00029F412968D919C919283818389E0849F24
:1037F000F001859FF00D1124E754FC4F0180F28108
:10380000E02D86819781909339028093380220932E
:10381000DD03A0913802B0913902CD91CDBFDD9189
:10382000DEBFFF91EF91DF91CF91BF91AF919F915B
:103830008F917F916F915F914F913F912F911F9148
:103840000F91FF90EF90DF90CF90BF90AF909F903F
:103850008F907F906F905F904F903F902F901F9030
:103860000F900FBE0F900895CF93DF9300D000D03C
:103870001F92CDB7DEB7E0917E02F0917F021081FA
:10388000F12CE12C112329F00580F681E02DE08058
:10389000F1800E94CE150E94C4156C0180917502C2
:1038A00090917602C816D90608F085C00E94F316DA
:1038B000D0927602C09275020E945F1800917A023F
:1038C00010917B020FB6F8940F92D8015A96FC9093
:1038D0005A97FF2009F430C15C964C915C974423C1
:1038E00001F150E016968D919C911797840F951FCA
:1038F00017969C938E93169714962D913C9115973D
:103900008217930738F08D919C91119717969C938D
:103910008E931697F80166817781CE0101960E94F9
:103920006824FA94D8015A96FC925A9718968C916A
:10393000882339F0C80108960E941F1581110E9442
:10394000A1170F900FBED980D7FCB8CF0C811D8175
:10395000D8011A968D919C91892B21F0C80102966D
:103960000E9421160E94C4157C01809175029091DD
:103970007602E816F90610F40E94F316F092760229
:10398000E0927502EFEFED0DE93008F097CF0E2EC3
:10399000000CFF0BEE52F34ED80152968C915297C9
:1039A0000C948923551D551D981D801D921D551D74
:1039B000551D981D801DD0927602C092750211236C
:1039C00051F0CE14DF0470F00E945F18B601C701F9
:1039D0000E94C91673CFE0917C02F0917D02808134
:1039E00061E0811160E000917A0210917B020FB6D4
:1039F000F8940F92D8015D968C915D978F3F11F4EA
:103A00005D961C92F801868D8F3F09F4168E0F90FB
:103A10000FBED8015A968C915A9781113CC052968C
:103A2000ED91FC91A0913802B09139021F96FC9360
:103A3000EE931E97A0913802B0913902848195814E
:103A400051969C938E9350978091380290913902B1
:103A5000A481B5810C9613969C938E9312978091B6
:103A60003802909139020C9695838483E091380254
:103A7000F0913902C8014196958B848BF8018189B8
:103A80008F5F818BC7018C199D09662311F08FEF21
:103A90009FEF0E941117C8010E94DF150E945F1856
:103AA00081110CCF0E94A11709CF8160F801828B90
:103AB000CA80DB80648575856C0D7D1D9601A7012C
:103AC000C8010E947B16882309F4F8CED8015296CB
:103AD0008C91529782FF10C01C966D917C916C0D59
:103AE0007D1DA701C8010E94A516D8015096ED9131
:103AF000FC91C8010995E2CE8E7FF801828BF5CF4B
:103B0000816052968C9352976A817B811D967C933B
:103B10006E931C976E0D7F1D9701A701C8010E942F
:103B20007B16CCCE81FD04C0C8010E94271AC6CEE8
:103B30008E7FF801828BC2CE0F900FBE9CCECF93AA
:103B4000DF93EC010E94CE15CE010E945F21EC01B3
:103B50000E945F18209769F4259A2D9A2FEF80E72D
:103B600092E0215080409040E1F700C000001D9A93
:103B7000F5CFCE01DF91CF9108957F928F929F92E2
:103B8000AF92BF92CF92DF92EF92FF920F931F936B
:103B9000CF93DF93982EA92E762E872E7A01B22E00
:103BA000CA010E949F1D6C01892B09F4EFC088E2B5
:103BB00090E00E949F1DEC01892B09F4E4C0D88E8F
:103BC000CF8AA70165EA70E0C6010E94712481E0F6
:103BD000E81AF108EF89F88DEE0DFF1D672D782D9D
:103BE000CE0149969B01285F3F4FDB014D91BD01FE
:103BF000DC014D93CD01AB0141505109DA014C91EB
:103C0000442319F06217730781F718A2BE8AB9A27C
:103C10001AA21B861A861D8A1C8AD987C88784E047
:103C200090E08B1991099D878C87DB8BCA8B84E090
:103C30009E012D5D3F4FD9011D928A95E9F71FA284
:103C40009082DF011197AC9211971C92119780E836
:103C50008C9311971C9257971C9211971C92B397B3
:103C6000F983E883F801D183C0830FB6F8940F92EB
:103C70008091E0038F5F8093E00380913802909100
:103C80003902892B09F091C0D0933902C0933802D0
:103C90008091E003813081F589EB93E00E949317D6
:103CA00082EC93E00E9493178BEC93E00E949317B1
:103CB00084ED93E00E94931780EB93E00E949317AA
:103CC00087EA93E00E9493178EE993E00E9493178E
:103CD00085E993E00E9493178CE893E00E94931784
:103CE00080EB93E090938B0380938A0387EA93E0C1
:103CF00090938903809388038091DE038F5F809384
:103D0000DE03AE898091DD038A1710F4A093DD03F2
:103D100029E02A9FD0011124A754BC4F11960D9081
:103D2000BC91A02DBD83AC8314968D919C91159769
:103D30009F838E831496ED91FC911597CE01029688
:103D40009383828315969C938E931497EE89E29FBA
:103D5000F0011124E754FC4FFB87EA8780818F5FD5
:103D600080830F900FBE8091DF03882351F0E09194
:103D70003802F091390296898E89981710F40E94C2
:103D8000A11781E004C0C6010E94271A8FEFDF91BE
:103D9000CF911F910F91FF90EF90DF90CF90BF9048
:103DA000AF909F908F907F9008958091DF03811155
:103DB000A3CFE0913802F091390296898E89891754
:103DC00008F49ACFD0933902C093380295CF0F935D
:103DD0001F93CF93DF930CE612E020E040EC50E01D
:103DE00069EA71E088E39AE10E94BD1D813009F023
:103DF000B3C00FB6F8940F9280917A0290917B0233
:103E0000892B09F04FC081E692E00E94931788E564
:103E100092E00E94931781E692E090937F02809354
:103E20007E0288E592E090937D0280937C0281E59A
:103E300090E00E949F1DEC01009781F14F969983BD
:103E400088838AE08B8F85E08C8F0FB6F8940F9271
:103E5000888199812B8D4C8DBC01249F600D711D33
:103E600011247D836C831A8E9B838A832150330BAC
:103E7000429FB001439F700D1124860F971F9F83AF
:103E80008E838FEF8D8F8E8FCE0108960E949317B1
:103E9000CE0141960E9493170F900FBED0937B02E4
:103EA000C0937A020F900FBE80917A0290917B02AC
:103EB000892B09F451C00AE612E023E045E550E001
:103EC0006EEA71E084E39CE10E94BD1D813009F03F
:103ED00043C0F8942FEF3FEF3093740220937302A6
:103EE0008093DF031092780210927702A89588E100
:103EF00090EC0FB6F894A895809360000FBE909355
:103F00006000A0913802B0913902CD91CDBFDD9112
:103F1000DEBFFF91EF91DF91CF91BF91AF919F9164
:103F20008F917F916F915F914F913F912F911F9151
:103F30000F91FF90EF90DF90CF90BF90AF909F9048
:103F40008F907F906F905F904F903F902F901F9039
:103F50000F900FBE0F90089580910001DF91CF91D7
:103F60001F910F9108950E946B1A18951092E40307
:103F70001092E30388EE93E0A0E0B0E08093E503C5
:103F80009093E603A093E703B093E80323E131E0C5
:103F90003093E2032093E10325EC30E03093EE030D
:103FA0002093ED0324EC30E03093F0032093EF03F3
:103FB00020EC30E03093F2032093F10321EC30E069
:103FC0003093F4032093F30322EC30E03093F603B4
:103FD0002093F50326EC30E03093F8032093F703A9
:103FE0001092FA031092FB031092FC031092FD034F
:103FF0001092810410928004809382049093830431
:10400000A0938404B093850425E231E030937F04CB
:1040100020937E041092E6041092E5048093E70456
:104020009093E804A093E904B093EA048DE491E04E
:104030009093E4048093E3041092FA041092F9043C
:104040001092FC041092FB041092FE041092FD04E6
:10405000109200051092FF04609101056E7F6D7F44
:10406000609301056695617081E0682783E00E9496
:10407000F30161E083E00E942102E1EBF0E0E491D2
:10408000E093F304EDE9F0E0E491F0E0EE0FFF1FC0
:10409000E057FF4F859194919093F5048093F40439
:1040A00060E082E00E9421028091010581FD04C050
:1040B00061E082E00E94F30182E08093EF04E0EB94
:1040C000F0E0E491E093F004ECE9F0E0E491F0E05A
:1040D000EE0FFF1FEA57FF4F859194919093F204E2
:1040E0008093F10464E771E08DED94E00E945F0B32
:1040F00064E771E087ED94E00E945F0B8091AE046D
:104100008C3008F050C091E0980F9093AE048093EB
:10411000D40490E0FC01EE0FFF1FE80FF91FE657F3
:10412000FB4F88EB9BE0928381838091AE048C30BF
:10413000F0F591E0980F9093AE048093D10490E055
:10414000FC01EE0FFF1FE80FF91FE657FB4F88EB4E
:104150009BE09283818383E491E09093C2048093F7
:10416000C1048AE08093CF0489E08093D00464E79F
:1041700071E08BEB94E00E945F0B1092B2041092FE
:10418000B10487E391E09093B0048093AF0487E299
:104190008093B30484E18093B80484E08093B904ED
:1041A0001092BA0408958FEF8093D404BECF8FEF9E
:1041B0008093D104D0CF789484B5826084BD84B5D7
:1041C000816084BD85B5826085BD85B5816085BD12
:1041D00080916E00816080936E00109281008091CA
:1041E0008100826080938100809181008160809352
:1041F0008100809180008160809380008091B10077
:1042000084608093B1008091B00081608093B000A1
:1042100080917A00846080937A0080917A00826035
:1042200080937A0080917A00816080937A008091F7
:104230007A00806880937A001092C1002091050175
:10424000309106018FEF98E0821B930B909302014F
:10425000809301010E94780F0E94E71E0E94780F50
:10426000C0E0D0E02097F1F30E940501FBCF8BEB7B
:1042700094E00E94740B87ED94E00E94740B8DED26
:1042800094E00E94740B8DE491E09093E404809399
:10429000E3048091C2029091C302835E944071F462
:1042A000E091F604F091F70490818091F8048095F4
:1042B000892380831092C3021092C20208950F9343
:1042C0001F93CF93DF938230910510F482E090E04A
:1042D000E0910405F091050530E020E0B0E0A0E0B9
:1042E000309799F42115310509F44AC0281B390B80
:1042F00024303105D8F58A819B816115710589F1DA
:10430000FB0193838283FE0111C0408151810281B0
:10431000138148175907E0F04817590799F4109787
:1043200061F012960C93129713961C933296CF015C
:10433000DF91CF911F910F91089500930405109381
:104340000505F4CF2115310551F04217530738F018
:10435000A901DB019A01BD01DF01F801C1CFEF0125
:10436000F9CF9093050580930405CDCFFE01E20FB0
:10437000F31F819391932250310939832883D7CF3A
:104380002091020530910305232B41F42091030174
:10439000309104013093030520930205209101011F
:1043A000309102012115310541F42DB73EB74091FE
:1043B000050150910601241B350BE0910205F09197
:1043C0000305E217F307A0F42E1B3F0B281739074C
:1043D00078F0AC014E5F5F4F2417350748F04E0F61
:1043E0005F1F5093030540930205819391939FCFE4
:1043F000F0E0E0E09CCFCF93DF930097E9F0FC0181
:10440000329713821282A0910405B0910505ED0147
:1044100030E020E01097A1F420813181820F931FBA
:1044200020910205309103052817390709F061C072
:10443000F0930305E0930205DF91CF910895EA011F
:10444000CE17DF07E8F54A815B819E0141155105D2
:10445000B1F7E901FB83EA8349915991C40FD51F54
:10446000EC17FD0761F4808191810296840F951FFE
:10447000E90199838883828193819B838A83F0E019
:10448000E0E012968D919C9113970097B9F52D91CC
:104490003C911197CD010296820F931F2091020546
:1044A000309103052817390739F6309751F51092E6
:1044B000050510920405B0930305A0930205BCCF37
:1044C000D383C28340815181840F951FC817D907B8
:1044D00061F44E5F5F4F88819981480F591F518366
:1044E00040838A819B81938382832115310509F062
:1044F000B0CFF0930505E09304059ECFFD01DC01EC
:10450000C0CF13821282D7CFBB274A3031F4992310
:1045100022F4BDE2909581959F4F0C949022BB2789
:10452000FB015527AA27880F991FAA1FA41710F06F
:10453000A41B83955051B9F7A05DAA3308F0A95D7B
:10454000A193009779F7B111B1931192CB010C941B
:10455000A922DC01FC01672F71917723E1F73297E3
:1045600004C07C916D9370836291AE17BF07C8F34E
:104570000895F999FECF92BD81BDF89A992780B52B
:104580000895262FF999FECF1FBA92BD81BD20BD97
:104590000FB6F894FA9AF99A0FBE01960895052E6F
:1045A00097FB1EF400940E94E62257FD07D00E945C
:1045B000382307FC03D04EF40C94E6225095409526
:1045C000309521953F4F4F4F5F4F089590958095BF
:1045D000709561957F4F8F4F9F4F08950E945A238A
:1045E000A59F900DB49F900DA49F800D911D112447
:1045F0000895B7FF0C94EE220E94EE22821B930BCB
:1046000008952F923F924F925F926F927F928F9276
:104610009F92AF92BF92CF92DF92EF92FF920F9351
:104620001F93CF93DF93CDB7DEB7CA1BDB0B0FB65B
:10463000F894DEBF0FBECDBF09942A883988488818
:104640005F846E847D848C849B84AA84B984C884AE
:10465000DF80EE80FD800C811B81AA81B981CE0FA5
:10466000D11D0FB6F894DEBF0FBECDBFED0108958A
:10467000A1E21A2EAA1BBB1BFD010DC0AA1FBB1F66
:10468000EE1FFF1FA217B307E407F50720F0A21BD8
:10469000B30BE40BF50B661F771F881F991F1A9445
:1046A00069F760957095809590959B01AC01BD016F
:1046B000CF010895A29FB001B39FC001A39F700DC9
:1046C000811D1124911DB29F700D811D1124911D1A
:1046D0000895991B79E004C0991F961708F0961B5E
:1046E000881F7A95C9F78095089597FB072E16F4D1
:1046F000009407D077FD09D00E948F2307FC05D0D6
:104700003EF4909581959F4F0895709561957F4FE8
:104710000895EE0FFF1F0590F491E02D0994AA1B58
:10472000BB1B51E107C0AA1FBB1FA617B70710F09C
:10473000A61BB70B881F991F5A95A9F780959095CE
:10474000BC01CD010895B0E0A0E0E9EAF3E20C94E9
:1047500003238C01009751F4CB010E945F218C014F
:10476000C801CDB7DEB7E0E10C941F23FC01E60FD2
:10477000F71F9C0122503109E217F30708F49DC08E
:10478000D901CD91DC911197C617D70798F0C530A4
:10479000D10530F3CE0104978617970708F3C61B9F
:1047A000D70B2297C193D1936D937C93CF010E9435
:1047B000FB21D6CF5B01AC1ABD0A4C018C0E9D1EAD
:1047C000A0910405B0910505512C412CF12CE12C50
:1047D000109731F580910205909103058815990590
:1047E00009F05CC04616570608F058C080910101D8
:1047F00090910201009741F48DB79EB74091050159
:1048000050910601841B950BE817F90708F055C075
:10481000F0930305E0930205F90171836083A0CF53
:104820008D919C91119712966C90129713967C9093
:104830001397A815B90559F56C0142E0C40ED11CB7
:10484000CA14DB0420F1AC014A195B09DA011296A3
:10485000159780F06282738251834083D9016D93F2
:104860007C93E114F10471F0D7011396FC93EE935D
:10487000129776CF22968C0F9D1FF901918380832A
:10488000F301EFCFF0930505E093040569CF4816D7
:10489000590608F42C017D01D3019ACFCB010E9467
:1048A0005F217C01009749F0AE01B8010E946824A5
:1048B000C8010E94FB21870153CF10E000E050CFD8
:1048C0009111089581568A5108F4805285580895AF
:1048D000FB01DC0102C001900D9241505040D8F71D
:1048E0000895DC0101C06D9341505040E0F70895F8
:1048F000FB01DC0101900D920020E1F70895FB011E
:1049000051915523A9F0BF01DC014D91451741118B
:10491000E1F759F4CD010190002049F04D91401587
:104920004111C9F3FB014111EFCF81E090E0019704
:10493000089510E0C2E6D0E004C0FE010E94892381
:104940002196C336D107C9F7F894FFCF03000006BC
:1049500005800000004000140054000000000034F6
:10496000019100BE008101EF00CD00E100000000D8
:10497000004C041F04EE09F50318040504F60300B7
:104980000000005D0A9100EE09900000000000BBED
:1049900007580762050000000059099100EE09F56B
:1049A00003B509CD09410933004461746120C49104
:1049B000C3A32078E1BBAD206CC3BD3A20000D0A33
:1049C000002A0054686520686F70206C65004D6F88
:1049D0002072616F21002900546865206B686F6E3A
:1049E0006720686F70206C6500446F6E672072618D
:1049F0006F2100340049444C4500546D72205376B9
:104A000063004861792071756574207468652100C0
:104A100043686F20636F6E2074726F6E673A005840
:104A2000696E206C6F69210042616920646F207893
:104A30006520646120646179002030002800320024
:104A400031005461736B436C6F73654261727269BC
:104A50006572005461736B5363616E4361726443AA
:104A60006F756E74005461736B5475726E4F666629
:104A700042757A7A6572005461736B526561644560
:044A8000535000008F
:107E0000112484B714BE81FFF0D085E080938100F7
:107E100082E08093C00088E18093C10086E0809377
:107E2000C20080E18093C4008EE0C9D0259A86E02C
:107E300020E33CEF91E0309385002093840096BBD3
:107E4000B09BFECF1D9AA8958150A9F7CC24DD24C4
:107E500088248394B5E0AB2EA1E19A2EF3E0BF2EE7
:107E6000A2D0813461F49FD0082FAFD0023811F036
:107E7000013811F484E001C083E08DD089C08234E0
:107E800011F484E103C0853419F485E0A6D080C0E4
:107E9000853579F488D0E82EFF2485D0082F10E0AE
:107EA000102F00270E291F29000F111F8ED06801E7
:107EB0006FC0863521F484E090D080E0DECF843638
:107EC00009F040C070D06FD0082F6DD080E0C81688
:107ED00080E7D80618F4F601B7BEE895C0E0D1E017
:107EE00062D089930C17E1F7F0E0CF16F0E7DF06D8
:107EF00018F0F601B7BEE89568D007B600FCFDCFD4
:107F0000A601A0E0B1E02C9130E011968C91119780
:107F100090E0982F8827822B932B1296FA010C0160
:107F200087BEE89511244E5F5F4FF1E0A038BF0790
:107F300051F7F601A7BEE89507B600FCFDCF97BE46
:107F4000E89526C08437B1F42ED02DD0F82E2BD052
:107F50003CD0F601EF2C8F010F5F1F4F84911BD097
:107F6000EA94F801C1F70894C11CD11CFA94CF0C13
:107F7000D11C0EC0853739F428D08EE10CD085E9AC
:107F80000AD08FE07ACF813511F488E018D01DD067
:107F900080E101D065CF982F8091C00085FFFCCF94
:107FA0009093C60008958091C00087FFFCCF809118
:107FB000C00084FD01C0A8958091C6000895E0E648
:107FC000F0E098E1908380830895EDDF803219F02E
:107FD00088E0F5DFFFCF84E1DECF1F93182FE3DFCA
:107FE0001150E9F7F2DF1F91089580E0E8DFEE27F6
:047FF000FF270994CA
:027FFE00040479
:00000001FF
